:020000040800F2
:10000000A8B40020C1010008FF2F00085D260008E9
:10001000FD2F000829050008333500080000000006
:10002000000000000000000000000000D3010008F4
:100030007D07000800000000D7010008813000089B
:10004000DB010008DB010008DB010008DB01000820
:10005000DB010008DB010008DB010008DB01000810
:10006000DB010008DB010008DB010008C106000815
:10007000DB010008DB010008DB010008DB010008F0
:10008000DB010008DB010008DB010008DB010008E0
:10009000DB010008DB010008DB010008DB010008D0
:1000A000DB010008DB010008DB010008DB010008C0
:1000B000DB010008DB010008DB010008DB010008B0
:1000C000DB010008DB010008DB010008DB010008A0
:1000D000DB010008DB010008DB010008DB01000890
:1000E000F5080008DB010008DB010008DB0100085F
:1000F000DB010008DB010008DB010008CD06000879
:10010000DB010008DB010008DB010008DB0100085F
:10011000DB01000879310008DB010008DB01000881
:10012000DB010008DB010008DB010008DB0100083F
:10013000DB010008DB010008DB010008DB0100082F
:10014000DB010008DB010008DB010008DB0100081F
:10015000DB010008DB010008DB010008DB0100080F
:10016000DB010008DB010008DB010008DB010008FF
:10017000DB010008DB010008DB01000800000000D3
:10018000DB010008DB010008DB010008DB010008DF
:10019000DB010008DB010008DB010008DB010008CF
:1001A0000000000000000000DB010008DFF80CD0B8
:1001B00000F0D6F80048004771770008A8B4002086
:1001C0000648804706480047FEE7FEE7FEE7FEE7F1
:1001D000FEE7FEE7FEE7FEE7FEE7FEE72531000863
:1001E000AD0100082DE9F05F0546002092469B46D0
:1001F00088460646814640241BE02846414647463D
:10020000224600F09CF853465A46C01A914110D33A
:1002100011461846224600F083F82D1A67EB0108B4
:100220004F4622460120002100F07AF817EB000922
:100230004E41201EA4F10104DFDC484631462A4627
:100240004346BDE8F09F00000649074A086850434E
:1002500043F23902104408604008704701490860C1
:1002600070470000EC0000206D4EC64140EA0103DB
:100270009B0703D009E008C9121F08C0042AFAD25C
:1002800003E011F8013B00F8013B521EF9D2704720
:10029000D2B201E000F8012B491EFBD270470022C8
:1002A000F6E710B513460A4604461946FFF7F0FF75
:1002B000204610BD10B5044604E00B7800F8013B61
:1002C00003B1491C521EF8D2204610BD421C10F842
:1002D000011B0029FBD1801A704730B5044600206D
:1002E000034600E05B1C934203D2E05CCD5C401B04
:1002F000F8D030BD30B50B46014600202022012445
:1003000009E021FA02F59D4205D303FA02F5491BE3
:1003100004FA02F52844151EA2F10102F1DC30BDF9
:10032000202A04DB203A00FA02F1002070479140B5
:10033000C2F1200320FA03F3194390407047202AAA
:1003400004DB203A21FA02F00021704721FA02F37F
:10035000D040C2F120029140084319467047000086
:10036000064C074D06E0E06840F0010394E8070002
:1003700098471034AC42F6D3FFF71CFF04CB0008BB
:1003800024CB000810B502F0BFFD00221146501E1C
:1003900001F02EFC02F09AFD02F008FE4FF47A7094
:1003A00000F0E4FD08211FA002F0E2FFC82000F0E9
:1003B000DDFD1F4C1FA12E48227803F023F9207881
:1003C0000C3020702A48FFF781FF2949084429A1F1
:1003D00003F018F92648FFF779FF81B2244802F0AC
:1003E000C7FFC82000F0C2FD30A1394803F00AF968
:1003F000374B227837A11E4803F004F91C48FFF759
:1004000065FF81B21A4802F0B3FF20780C30C0B209
:100410002070982801D90C202070BDE81040C82019
:1004200000F0A4BD434C532830290D0A0000000001
:100430003000002053585928302C30293B53424378
:100440002830293B445331322833302C25642C2763
:1004500045746865726E6574204941502041707022
:100460006C69636174696F6E272C3135293B00001C
:100470005437002053585928302C30293B534243DD
:100480002830293B44533132283132352C31363033
:100490002C2753544D333234784720626F61726495
:1004A000272C3135293B0D0A00000000537461747C
:1004B000653A2045746865726E657420496E69748A
:1004C00069616C697A6174696F6E2E2E2E0000006E
:1004D0005433002053585928302C30293B53424381
:1004E0002830293B4453313228312C25642C2725D0
:1004F00073272C3135293B0D0A000000094B40B110
:1005000001280AD002280CD100228102184601F0ED
:100510001ABB00224FF40071F8E700224FF480610B
:10052000F4E7704700180240FEE7000070B505468A
:1005300001F00EFB074C6168401AB0F5FA7F07D353
:1005400001F006FB60602846BDE8704000F004B88A
:1005500070BD0000400000202DE9F043344E0546F8
:1005600085B030780027334C4FF00C0801280ED0AE
:10057000DFF8C490022818D004284FD0052803D1F2
:10058000284604F05BFE377005B0BDE8F0836F606D
:10059000AF600220EF603070284604F097FD27A17D
:1005A00023E0C82000F0E2FCEEE7284604F0B8FEA5
:1005B00078B103203070281D06F058FC024628A1AF
:1005C000684603F01FF86A4626A12C4803F01AF883
:1005D0000EE0686A807A0428D6D904203070284654
:1005E00004F02CFEA9F8007025A1244803F00AF8B5
:1005F000224B227827A1314803F004F82F48FFF757
:1006000065FE81B22D4802F0B3FE20780C30C0B2F6
:1006100020709828C5D984F80080C2E7B9F8000096
:1006200041F288318842AFD301203070ACE700003E
:10063000400000203000002032000020537461741C
:10064000653A204C6F6F6B696E6720666F7220444D
:1006500048435020736572766572202E2E2E00005E
:1006600025730000495020616464726573732061D2
:10067000737369676E65643A2025730054330020F4
:10068000444843502054696D656F757420212120C2
:100690000000000053585928302C30293B53424366
:1006A0002830293B4453313228312C25642C27250E
:1006B00073272C3135293B0D0A00000054370020E8
:1006C000014800F0E1BA0000943B0020014800F02E
:1006D000DBBA0000F43B002001681823CAB2103ACC
:1006E000B2FBF3F2054B6FF30901032A9B5CC36570
:1006F00000D9091D8165084670470000BCC7000885
:1007000010B5014600208B698A6A4FF0C07453B15E
:10071000B3F5005F15D072B1012A0CD0022A0AD0BD
:10072000032A09D104E01AB1012A06D0022A03D112
:10073000C96AC90100D5012010BDC96AA142FAD019
:1007400010BD002AF7D0012AF2D0022AF3D0032AE2
:10075000F3D010BD30B50468256825F480252560E8
:10076000046863608368402B036803D09960006865
:10077000C26030BD9A600068C16030BD7047000043
:10078000064908B509684FF4FA52B1FBF2F141434A
:10079000009100BF491E0091FBD208BD000000205F
:1007A00038B50446006800F58050816941F4801135
:1007B0008161206800F58050806900900120FFF77A
:1007C000DFFF2068009900F58050816138BD00008E
:1007D0002DE9F041044621B14FF40060E060C00013
:1007E000A060E0690025002861D0284623684026E3
:1007F00019683A4A1140D4E902273A43024342F4C5
:1008000000700843186020680768012000F0AEFB04
:10081000206807602068466020684668012000F074
:10082000A5FB20684660206885602068C560216857
:1008300088694FF64172104040F08000886120685E
:100840008669012000F092FB206886612068C561FE
:100850002068C569012000F089FB2068C561226815
:1008600002F5805290691E4908401E49014391617A
:10087000206800F580508569012000F077FB206832
:1008800000F5805085612068174900F580500160AF
:10089000206800F580500568012000F067FB2068A3
:1008A00000F580500560A069012803D009E04FF4ED
:1008B00080609BE7206800F58050C1690B4A1143B6
:1008C000C16160690A4982880A640278D0F801002F
:1008D00042EA00204864BDE8F08100000F8120FF5B
:1008E000233FDEF8040020028020C1024000010006
:1008F000008002404FF4804001F02AB870470000A9
:10090000002229B101291DD002291ED04FF44072C6
:100910000B2800D9001D0E490B6823F440730B60AF
:100920000B6813430B600A6822F0F8020A600A6839
:10093000022303EBC00002430A60086840F48030E1
:10094000086070474FF48072E2E74FF40072DFE70F
:10095000103C02401348016889050FD5016821F455
:1009600000710160016841F400610160016821F4D7
:1009700000610160016841F400710160016849058E
:100980000FD5016821F480610160016841F4805154
:100990000160016821F480510160016841F48061C7
:1009A00001607047003C024000B50B4987B08842A7
:1009B0000ED800200590009005200290072003909B
:1009C0000220049005A9684600F016FF002800D018
:1009D000012007B000BD000000000E0800F098BF25
:1009E0002DE9F04116468846054600240F4F16E0D3
:1009F00058F8242029680023022000F04BFF10B192
:100A00000120BDE8F0812868016858F8240081427F
:100A100001D00220F5E72868001D2860641CB4425C
:100A200002D22868B842E3D90020EAE7FBFF0F08AA
:100A30000E4A136823F44073136003290DD0012973
:100A400011680FD041F40041116011684FF48033F8
:100A500043EA0020014311607047116848F2040323
:100A60001943F1E741F00401EEE70000103C0240B9
:100A7000064A136823F44073136013681360136805
:100A800043F001031360017070470000103C024006
:100A9000094910B50C6824F440740C600C6844F4E7
:100AA00040740C600C6844F001040C600260BFF3F9
:100AB0006F8F436010BD0000103C0240074A13686E
:100AC00023F440731360136843F480731360136856
:100AD00043F001031360018070470000103C0240A6
:100AE000074A136823F440731360136843F40073D8
:100AF0001360136843F00103136001607047000046
:100B0000103C02401C490868C2061C4805D5C26951
:100B100042F01002C26110220A600A68920605D5EE
:100B2000C26942F00802C26120220A600A685206C5
:100B300005D5C26942F00402C26140220A600A6817
:100B4000120605D5C26942F00202C26180220A6023
:100B50000A68D20506D5C26942F00102C2614FF4AB
:100B600080720A600A68920705D5C26942F02002C5
:100B7000C2610220086070470C3C02401402002051
:100B800070B5114904460020C86100F0E1FF064637
:100B90000E4D09E0601C07D024B100F0D9FF801B86
:100BA000A04201D9032070BD2868C003F2D4286890
:100BB000C00701D001202860286810F4F970F2D035
:100BC000FFF7A0FF012070BD140200200C3C024082
:100BD0002DE9F0410446876D00F0BAFF064694F80F
:100BE00035000025022806D08020606584F8345046
:100BF0000120BDE8F0812068016821F01601016044
:100C00002068416921F080014161206C08B9A06C25
:100C100020B12068016821F00801016020680168A6
:100C200021F0010101600BE000F092FF801B05281C
:100C300006D92020606504F8345F03206070D8E78F
:100C400020680068C007EFD194F85C103F2088400E
:100C5000B86004F8345F012060700020C9E790F8A4
:100C60003510022903D080214165012070470521FC
:100C700080F835100068016821F001010160002052
:100C80007047406D704700002DE9F84304464FF06F
:100C90000009CDF8009063484FF41651A56D006827
:100CA000B0FBF1F72E6894F85C10082000FA01F10F
:100CB00031420FD021680A6852070BD50A6822F02A
:100CC00004020A6094F85C108840A860606D40F0EF
:100CD0000100606594F85C104FF0010808FA01F01B
:100CE000304208D021684969090604D5A860606DC2
:100CF00040F00200606594F85C10042088403042A7
:100D000008D021680968890704D5A860606D40F0A3
:100D10000400606594F85C1010208840304218D0C0
:100D200021680968090714D5A8602068016849038B
:100D300004D50068000308D5A16C07E00168C90567
:100D400003D4016821F008010160216C09B120463B
:100D5000884794F85C1020208840304231D02168C8
:100D60000968C9062DD5A86094F8350005282068C3
:100D7000016806D0490347D5006800031DD4616CA3
:100D80001CE021F0160101602068416921F080011A
:100D90004161206C08B9A06C20B12068016821F085
:100DA0000801016094F85C103F208840A86084F836
:100DB000349084F83580216D1FE0E16B09B1204645
:100DC0008847606D00282BD0606DC00714D00520C7
:100DD00084F835002068016821F001010160009865
:100DE000401C0090B84203D820680068C007F6D1C4
:100DF00084F8349084F83580E16C002910D001B07B
:100E00002046BDE8F04308470168C905D5D401680C
:100E100021F01001016084F8349084F83580CCE72B
:100E2000BDE8F883000000202DE9F041044600F001
:100E30008FFE06465CB1002584F83450022084F809
:100E400035002068016821F0010101600DE00120FA
:100E5000BDE8F08100F07CFE801B052805D920202C
:100E60006065032084F83500F2E720680068C00759
:100E7000F0D12268116820480140D4E901031843E9
:100E8000D4E903363343184363691843A36918430D
:100E9000E3691843236A18430843616A042903D1AC
:100EA000D4E90B1319430843106020684069666A4F
:100EB00020F0070130460E43012704280CD1A06A18
:100EC0000643E06A40B12046FFF71AFC20B14020FB
:100ED000606584F83570BAE7206846612046FFF700
:100EE000FBFB94F85C203F2191408160656584F8AC
:100EF00035700020ACE700003F8010F02DE9F04194
:100F00000446866D90F83400002501280DD001209C
:100F100084F8340094F835700020012F07D084F84D
:100F2000340002252846BDE8F0810220FBE70227B5
:100F300084F8357060652046FFF70CFC94F85C106F
:100F40003F208840B0602068016841F016010160D0
:100F5000206C20B12068016841F008010160206820
:100F6000016841F001010160DCE7000070B5044652
:100F700000F0EEFD0546601C02D0044800780444F1
:100F800000F0E6FD401BA042FAD370BD2400002013
:100F90002DE9F041054690F845000C46012875D032
:100FA000012685F84560022085F84400002C70D0A9
:100FB0002A68116841480140D4E900031843D4E984
:100FC00002373B431843AB681843236918436369EE
:100FD0001843EB681843A3691843E3691843236A6D
:100FE0001843636A1843A36A1843084310602868CB
:100FF00007680120FFF7BAFF28680760D4E90B01F2
:101000000843D4E90D1211430843E16B0843216CF6
:101010000843616C0843A16C08432968486028684C
:1010200047680120FFF7A2FF286847602968E06C45
:1010300088602968206DC8602A6891694FF6417000
:101040000140D4E916031843B4F85470236E43EA00
:1010500007431843636E1843A36E18430843906117
:10106000286887690120FFF781FF28688761D4E934
:101070001B0108432968C8612868C4690120FFF77B
:1010800075FF2868C46114E000E002E00220BDE8BA
:10109000F0812968086820F49042D5E902031843DA
:1010A00010430860286804680120FFF75FFF286884
:1010B000046005F8446F00206870E8E70F8120FFA6
:1010C0002DE9F04390F845400025012C0DD04FF05C
:1010D000010C80F845C0022480F8444044F2F457E3
:1010E0004FF000495E1E816217E00220BDE8F083E8
:1010F00001EB4514C4F80090C5EBC51808EB48088F
:1011000002EB8808C4E90178B54204D204F1200852
:10111000C4F80C8000E0E1606D1C9D42E8D30268D9
:1011200002F58052D16080F844C0002180F845105B
:101130000846DBE72DE9F043914690F8452000246E
:10114000012A0AD0012680F84560022280F8442056
:101150004FF4801C5D1EC1621BE00220BDE8F083DD
:1011600001EB4412C2F800C0C4EBC41707EB4708F8
:1011700009EB88079760C7691FB9176847F44007EC
:101180001760AC4203D202F12007D76000E0D160C3
:10119000641C9C42E4D3026802F58052116180F81D
:1011A0004460002180F845100846D7E710B590F854
:1011B0004510012913D0012280F84520022180F832
:1011C0004410816A0C680023002C27DB0C68E405BE
:1011D00018D5846B641C8463012C02D002E00220C9
:1011E00010BD016341630C68C4F30D44241FC46344
:1011F000046BA4680464C96840F8281F0277437729
:10120000002010BD0C68A40503D58263C0E90C134F
:1012100002E0846B641C8463C968816200F8442F17
:101220004370012010BD00002DE9FC474FF000067F
:101230000400B146009603D094F8440018B107E0CA
:101240000120BDE8FC8784F84560204600F0E2F804
:101250006648016841F480410160006800F4804004
:1012600001906348016821F4000101600168226A6D
:1012700011430160206800F58050016841F00101D0
:10128000016000F065FC05464FF4FA7709E000BF05
:1012900000F05EFC401BB84203D9032004F8440F61
:1012A00067E0206800F580500068C007F0D1206832
:1012B000006920F01C0500F067FD4E494E4A0144CC
:1012C000914202D245F0080516E04C494C4A0144CF
:1012D000914202D245F00C050EE04A494A4A0144C7
:1012E000914209D3494908444949884202D245F00C
:1012F000040501E045F01005206805614FF4004247
:101300000021204600F03CFA0125A8BBFF20FFF792
:101310002DFE606888B300F01BFC804641F28837E0
:101320006A460121204600F0E1F800F011FCA0EB34
:101330000800B84217D800984007F1D54FF4805202
:101340000021204600F01CFAB0B900F001FC8046F4
:101350006A460121204600F0C9F800F0F9FBA0EB35
:101360000800B8420AD901212046FFF731FA04F8F3
:10137000445F0320667064E724E018E0009880066C
:10138000E6D56A461021204600F0B0F8D0B90098A2
:10139000410703D54FF40061E16000E0E66080079B
:1013A00001D5A66019E04FF48040A06015E0E06828
:1013B000A168C00840EA510082B20021204600F036
:1013C000DFF930B101212046FFF702FA84F84450DA
:1013D00036E740F6FF70FFF7C9FD49462046FFF7A4
:1013E000F7F984F8445000202BE70000443802400D
:1013F0000438014000D3CEFEC0E1E40040F1E9FD35
:1014000040787D0100796CFC005A6202001F0AFAE4
:1014100080F0FA02F0B587B0044614216846FEF762
:101420003EFF2D492068884253D12C480024016892
:1014300041F000710160016801F0007105910168DF
:1014400041F080610160016801F0806105910168EF
:1014500041F000610160016801F0006105910168DF
:1014600041F004010160016801F004010591016887
:1014700041F001010160016801F00101059101687D
:1014800041F0020101600068022500F002000590B1
:101490003220CDE9000502AA03260B2782E8D000FE
:1014A00069460F4800F060FA8620CDE9000502AADF
:1014B000694682E8D0000B4800F056FA4FF46050BD
:1014C000CDE9000502AA694682E8D000064800F08E
:1014D0004BFA07B0F0BD00000080024030380240F7
:1014E0000008024000000240000402402DE9F047DD
:1014F000044690F84400914682281DD0822084F84A
:101500004400226810694FF6FF7500F01C03208A22
:1015100005EAC02018434FF4F86303EA8111014340
:1015200021F0020040F00105156100F011FB0646B4
:1015300001274FF4803810E00220BDE8F08700BF9B
:1015400000F006FB801B404505D304F8447F0020D3
:1015500060700320F1E720680569E807F0D1206892
:10156000406981B2C9F8001084F844700020E4E7B3
:10157000F8B5044690F84500012839D0012584F8D3
:101580004550022084F8440020680026016841F09C
:10159000080101602068006800902846FFF7F0F815
:1015A0002168009808602068016841F0040101602A
:1015B0002068006800900120FFF7E2F82168009899
:1015C00008602046FFF7ECF8206800F5805081693C
:1015D00041F400518161206800F58050816941F03B
:1015E0000201816184F8445084F845600020F8BD10
:1015F0000220F8BDF8B5044690F84500012839D01E
:10160000012584F84550022084F84400206800F544
:101610008050816921F400518161206800F580507B
:10162000816921F00201816120680026016821F0B2
:10163000040101602068006800900120FFF7A0F815
:101640002168009808602046FFF7AAF82068016822
:1016500021F0080101602068006800900120FFF778
:101660008FF821680098086084F8445084F8456039
:101670000020F8BD0220F8BDF0B590F84520002309
:10168000012A11D0012780F84570022280F84420F9
:10169000002459B1C66A3268002A0ADA122100F819
:1016A000441F44700120F0BD0220F0BD00F8447FCB
:1016B000F7E740F2F455A9420BD9B1FBF5FCB1FBB9
:1016C000F5F205FB1C1CBCF1000F00D0521C012AD6
:1016D00043D1326842F040523260C26AC1F30C0119
:1016E0005160C16A0A6842F000420A60C16AC96872
:1016F000C16234E0D6F800C02CF0405CC6F800C0EF
:1017000033B9C66AD6F800C04CF0805CC6F800C099
:10171000C66A7560561EB34214D1C66AD6F800C0B8
:101720004CF0005CC6F800C0C2F10106C6EBC6165C
:1017300006EB4606D0F82CC001EB8606C6F30C0675
:10174000CCF80460C66AD6F800C04CF0004CC6F86D
:1017500000C0C66A5B1CF668C6629342CAD30168C1
:1017600001F580514A69520705D504224A61016892
:1017700001F580514C6000F8447F44700020F0BDBA
:101780002DE9F041044690F8440042281ED0422042
:1017900084F84400236818694FF6FF7600F01C05B2
:1017A000208A06EAC02028434FF4F86505EA811133
:1017B000014390B241F0030558612068056100F0D3
:1017C000C7F9064601274FF4803810E00220BDE833
:1017D000F08100BF00F0BCF9801B404505D304F840
:1017E000447F002060700320F1E720680569E80766
:1017F000F0D184F84470EAE72DE9F0470446234825
:101800000F46017E01290AD00121804601764CF263
:1018100050394846FFF7B4F9020003D030E0022007
:10182000BDE8F0874FF0FF3038602068184D012880
:1018300001D0A6681DE0207C6168FFF7F9F84846F2
:10184000FFF79EF90246286848F2040188432860A1
:1018500014E0217C3046FFF753F84846FFF790F933
:101860000200286820F0FA00286001D03E6005E000
:10187000761CD4E902100844B042EAD8FFF76AF8AF
:10188000002188F818101046CAE700001402002052
:10189000103C02402DE9F0471B4E05461446307EB1
:1018A0001F468946012808D0012030764CF2503876
:1018B0004046FFF765F918B114E00220BDE8F08753
:1018C0009DB1012D16D0022D19D022463B46484627
:1018D000FFF7DEF84046FFF753F90C490A6822F09B
:1018E00001020A6000213176E8E7E1B24846FFF7DD
:1018F000BFF8EFE7A1B24846FFF7E0F8EAE7214674
:101900004846FFF7EDF8E5E714020020103C0240DE
:10191000074900200A68002A09DA054A054B0C3AF3
:101920001360054B13600968002900DA0120704735
:10193000103C024023016745AB89EFCDB0F5804FE5
:1019400002D1024804F090BC70470000340200202D
:10195000044910B50A68024202D00860FFF7EEFFA2
:1019600010BD0000143C01402DE9F84F00224FF05B
:10197000010803254FF00F0E0B6808FA02F423400C
:10198000A3426ED14E68012E05D0022E03D0112E37
:1019900001D0122E12D186684FEA420C05FA0CF7DC
:1019A000BE43CF6807FA0CF7374387604668A64303
:1019B0000C79C4F30014944034434460C668570063
:1019C00005FA07FC8C6826EA0C06BC403443C46068
:1019D0004C68022C01D0122C13D1D40800EB8404E3
:1019E000A346D4F8209054074FEAD46A0EFA0AF6B8
:1019F00029EA06090E6906FA0AF646EA0906CBF84C
:101A0000206004680E7924EA0C0406F00306BE4048
:101A1000264306604C68E4006FD53B4C266846F4CC
:101A200080462660246822F0030604F48044009473
:101A3000364C3444A446D4F808489607360F0EFABC
:101A400006F7BC43324FB84201D100272EE0314F98
:101A5000B84201D1012729E02F4FB84202D1022715
:101A600024E04AE02D4FB84201D103271EE02C4F5D
:101A7000B84201D1042719E02A4FB84201D1052705
:101A800014E0294FB84201D106270FE0274FB84292
:101A900001D107270AE0264FB84201D1082705E007
:101AA000244FB84201D1092700E00A27B740274355
:101AB000CCF80878204E34684F689C43FF0300D56B
:101AC0001C4334601C4E361D34684F689C43BF0372
:101AD00000D51C433460184E083634684F689C4368
:101AE000FF0200D51C433460134E0C3634684F6837
:101AF0009C43BF0200D51C433460521C102AFFF4E3
:101B00003BAFBDE8F88F0000443802400030014090
:101B1000000002400004024000080240000C0240A5
:101B2000001002400014024000180240001C024055
:101B30000020024000240240003C014000690840AF
:101B400000D0012070470AB1816170470904FBE7AA
:101B50000148806870470000240000200248816826
:101B6000027811448160704724000020094810B5B4
:101B7000016841F400710160016841F48061016015
:101B8000032000F055F80F2000F006F800F024F8CC
:101B9000002010BD003C024070B50D4D04464FF4CE
:101BA0007A712878B1FBF0F00A490968B1FBF0F0CE
:101BB00000F03EFB48B9102C07D200222146501EEF
:101BC00000F016F800206C6070BD012070BD0000B0
:101BD0002400002000000020704700F01F020121B7
:101BE00091404009800000F1E020C0F800117047EA
:101BF000F0B40E4B1B680C46C3F30223C3F1070578
:101C0000042D00D90425191D072901D2002300E065
:101C1000DB1E012606FA05F1491E214099409E402F
:101C2000761E16403143F0BC01F0EAB90CED00E03D
:101C3000064900F0070208684FF6FF03184040EA23
:101C40000220034A10430860704700000CED00E0DA
:101C50000000FA052DE9F0470E46050065D0DFF8D3
:101C60001481D8F80000F7B200F00F00B04207D29C
:101C700088F80070D8F8000000F00F00B04254D18E
:101C800028683D4C810712D5400703D5206840F4F1
:101C9000E05020602878000703D5206840F46040B9
:101CA00020602068A96820F0F000084320602878B0
:101CB000C0072DD0304968680839012812D00228A1
:101CC00013D0032811D00968890700292DDA21686B
:101CD00021F0030101432160FFF73AFF814641F201
:101CE000883A0EE009688903EFE709688901ECE7A3
:101CF000FFF72EFFA0EB0901514502D90320BDE8F3
:101D0000F0872068696800F00C00B0EB810FEFD11C
:101D1000D8F80010404601F00F01B14207D9077012
:101D2000006800F00F00B04201D00120E7E72878FA
:101D3000400705D52068E96820F4E050084320609A
:101D40002878000706D52068296920F4604040EA19
:101D5000C100206000F03EF82168084AC1F3031179
:101D6000515CC8400649086006480068FFF714FF48
:101D70000020C4E7003C0240083802409CC700082D
:101D80000000002028000020014800687047000083
:101D9000000000200448054900680968044AC1F3AE
:101DA0008221515CC8407047000000200838024082
:101DB000ACC700080448054900680968044AC1F333
:101DC0004231515CC8407047000000200838024092
:101DD000ACC70008154810B5006810F00C02144894
:101DE00013D01449042A0FD0082A0ED10F4C241FF7
:101DF0002268236802F03F025B0207D52068C0F327
:101E00008810A0FB010106E0084610BD2168C1F35F
:101E10008811A1FB00010023FEF7E4F92168C1F35A
:101E20000141491C4900B0FBF1F010BD08380240E7
:101E30000024F40040787D01F0B51F4C16460D4695
:101E40001D4B002102220327283C0028186887B078
:101E500019D040F004001860186800F004000590E4
:101E600010020090CDE90121CDE9037169461348C4
:101E7000FFF77AFD206845EAC60120F07840084364
:101E8000206007B0F0BD40F001001860186800F055
:101E9000010005904FF480700090CDE90121CDE95B
:101EA000037169460648FFF75FFD2068354320F05F
:101EB000EC602843E4E700003038024000080240AC
:101EC000000002402DE9F84F040076D02078DFF8BA
:101ED00038A3CE4DC00749D0DAF800105046C1F300
:101EE0008101012908D00068C0F3810002280AD1CD
:101EF000281D0068400206D52868800336D5606832
:101F00000028E2D032E06068B0F5803F10D0B0F534
:101F1000A02F286810D020F480302860286820F492
:101F2000802028606068A0B1FFF712FE06460CE032
:101F3000286840F48030F4E740F480202860F7E718
:101F4000FFF706FE801B642873D828688003F7D546
:101F50000CE0FFF7FDFD064605E000BFFFF7F8FDCA
:101F6000801B6428F0D828688003F7D42078DFF835
:101F7000A08280074FF000093ED5DAF800105046E5
:101F800011F00C0F09D00068C0F3810002280BD1BA
:101F90009D48001F0068400206D42868800715D5B8
:101FA000E068012809D111E0E068B8B10120C8F863
:101FB0000000FFF7CDFD064605E020E1FFF7C8FD74
:101FC000801B0228C0D828688007F7D528682169B7
:101FD00020F0F80040EAC10028600DE0C8F8009049
:101FE000FFF7B6FD064604E0FFF7B2FD801B0228AE
:101FF0001FD828688007F7D42078000722D5824EA2
:10200000844861696C3671B101210160FFF7A0FD60
:10201000074604E0FFF79CFDC01B022809D8306882
:102020008007F7D50EE0C0F80090FFF791FD074656
:1020300005E082E0FFF78CFDC01B02287DD83068E8
:102040008007F7D42078400768D5DFF8BCB10027B7
:102050000BF1380BDBF80000C0000BD4DBF80010EC
:1020600041F08051CBF80010DBF80000012700F0B0
:1020700080500090684E3068C00510D4306840F43D
:1020800080703060FFF764FD009005E0FFF760FDB1
:102090000099401A022850D83068C005F6D55A4E2B
:1020A000A068683601280FD00528306810D020F0CD
:1020B00001003060306820F004003060A068B8B1E2
:1020C000FFF746FD00900FE0306840F00100F4E7B4
:1020D00040F004003060F7E7FFF73AFD0099411A3D
:1020E00041F28830814266D830688007F4D50EE02E
:1020F000FFF72EFD009007E0FFF72AFD0099411A37
:1021000041F28830814256D830688007F4D42FB12C
:10211000DBF8001021F08051CBF80010A069D0B39B
:10212000DAF800205146C2F38102022A4AD002287E
:10213000484607D0C8F8600000E03CE0FFF708FD23
:1021400004463BE04746C8F86000FFF701FD06463D
:1021500005E000BFFFF7FCFC801B02282BD8286895
:102160008001F7D4D4E907010843A16A2B4A490842
:1021700002EB0141626A41EA8211084394F82C1093
:1021800040EA01612048001F016001203866FFF726
:10219000DFFC044605E034E0FFF7DAFC001B022810
:1021A00009D828688001F7D52BE000BFFFF7D0FCE5
:1021B000001B022802D90320BDE8F88F286880019F
:1021C000F4D41EE00128F7D00868E26900F4800129
:1021D000914214D1226A00F03F0191420FD147F69B
:1021E000C071626A0140914209D1A26A00F4403193
:1021F000914204D1E16A00F07060884201D0012070
:10220000DAE70020D8E70000083802400038024032
:1022100000004742800E4742007000400000FFFF70
:1022200002484188491C418070470000300000206E
:1022300010B5401EB0F1807F01D3012010BD4FF0DA
:10224000E02460610F21601700F0DAFE0020A06139
:1022500007202061002010BD10B5FFF7E1FF10BD81
:1022600070B504460068C16821F49071C1602068AF
:10227000416921F001014161206841694FF0000589
:1022800049060FD5416921F040014161606B48B1B9
:102290000565606BFEF79CFC20B1606BFEF7F1FCFE
:1022A000202805D0E585202084F83A00002070BD64
:1022B0001020E063032070BD7047000070B5026815
:1022C00004461068D168536910F00F0F53D003F023
:1022D000010501F490762E435FD0C20705D0CA05F0
:1022E00003D5E26B42F00102E263420705D5DA074B
:1022F00003D0E26B42F00202E263820705D5DA07FF
:1023000003D0E26B42F00402E263020707D501F05A
:1023100020022A4303D0E26B42F00802E263E26B40
:10232000002A34D0800604D5880602D5204600F065
:10233000D4FF20684069E16BC0F3801001F0080110
:102340000143204624D000F0B1FF206841694906CE
:102350001AD5416921F040014161606BA0B11B4970
:102360000165606BFEF77BFC002810D0606B016D8F
:10237000BDE87040084783060FD58B060DD5204673
:10238000BDE8704000F0A9BF2046FFF795FF70BD83
:10239000FFF792FF0020E06370BD030606D50B0631
:1023A00004D52046BDE8704001F092B84006F3D550
:1023B0004806F1D5D168204621F04001D1602021A6
:1023C00084F8391000F048F970BD0000D5310008DC
:1023D00070B5040004D094F83900002510B106E06F
:1023E000012070BD84F83850204600F023F82420E6
:1023F00084F839002068C16821F40051C16020468A
:1024000000F0D2FF2068016921F490410161206849
:10241000416921F02A0141612068C16841F40051FD
:10242000C160E563202084F8390084F83A00002078
:1024300070BD00002DE9F04387B0064614216846C0
:10244000FDF72DFF37493068884267D136480024B0
:10245000016841F480110160006800F4801005906B
:1024600031481038016841F004010160016801F051
:1024700004010591016841F008010160006802252E
:1024800000F0080005904FF4805001274FF003083A
:102490004FF008098DE8A10369462448FFF764FA64
:1024A00004208DE8A10369462148FFF75DFA224D1B
:1024B00020484FF48068C7052860C5E90174C5E964
:1024C00003486C61AC61EC612C6228466C62FEF7DB
:1024D000ABFC08B1FEF712FA7563AE63164D1548F2
:1024E0006035A830E5E802074020A5E81101124850
:1024F00045F814496030AC61EC612C626C62FEF707
:1025000093FC08B1FEF7FAF935630022012135206A
:10251000AE63FFF76DFB3520FFF75FFB07B0BDE84B
:10252000F0830000005000404038024000080240A4
:10253000000C024010600240943B0020F8B50446B5
:1025400090F83A0020283CD1C1B3BAB394F83800CF
:10255000012836D0012084F83800A162A285002528
:10256000E563222084F83A00636B1748D863636BF5
:1025700016481864636B1648D864606B134605658B
:102580000846666B216802463046091DFEF7B6FC18
:10259000206801684168009184F83850C16841F4AE
:1025A0008071C1602068416941F00101416120688A
:1025B000416941F0400141610020F8BDFFE7012081
:1025C000FBE70220F9E700002F3200086B32000819
:1025D000E53100087047704770B5044690F839003F
:1025E000202830D169B362B394F8380001282AD08A
:1025F000012084F838002162A284E2840025E5638A
:10260000212084F83900236B1048D863236B1048CD
:102610001864236B0F48D864206B13460565266841
:10262000206B321DFEF76AFC21686FF040000860E5
:1026300084F838502068416941F0800141610020F0
:1026400070BD012070BD022070BD00007532000811
:10265000A3320008E531000870477047FEE700002C
:1026600010B50446084605F03DF9204609F09AFEEB
:10267000204609F09FFF0548002203498068BDE815
:10268000104009F094BF000009280008480000200D
:10269000408805F02FB800002DE9F05F8346914691
:1026A0008A464FF40A7005F0CBF9334D04004FF021
:1026B0000C0740D002202060DAF80000C4F80C02B9
:1026C0000026C4E9849622462C495846C4F818626C
:1026D00009F06DFFDFF8A880C8F80060FEF77EF90A
:1026E000284E3046FEF760F9C8F804604A46514665
:1026F0005846D4F8143200F0A5F923A1284800F078
:1027000081FF274B2A7827A1304800F07BFF2F4814
:10271000FDF7DCFD81B22D4800F02AFE28780C3050
:10272000C0B22870982800D92F70C820FEF71EFC70
:102730000020BDE8F09F26A1194800F063FF184B68
:102740002A7827A1214800F05DFF2048FDF7BEFD53
:1027500081B21E4800F00CFE28780C30C0B2287000
:10276000982800D92F70C820FEF700FC2146584653
:10277000FFF776FFDCE7000030000020D52B0008D3
:10278000480000200000020853746174653A20502C
:10279000726F6772616D6D696E672E2E2E2000005C
:1027A0005433002053585928302C30293B5342438E
:1027B0002830293B4453313228312C25642C2725DD
:1027C00073272C3135293B0D0A00000054370020B7
:1027D0004D656D6F7279206572726F722000000016
:1027E00053585928302C30293B5342432830293B39
:1027F0004453313228312C25642C272573272C3162
:1028000037293B0D0A0000002DE9F04397B09846A8
:102810001746DDF8789009F0BDFE5B4C06004FF0DE
:102820000C0504D00022594909F03EFDE8B158A139
:102830005C4800F0E7FE5B4B22785BA1644800F047
:10284000E1FE6348FDF742FD81B2614800F090FD72
:1028500020780C30C0B22070982800D92570C8208C
:10286000FEF784FB17B0BDE8F0837968487802284A
:102870001ED058A14B4800F0C5FE4A4B22784AA111
:10288000534800F0BFFE5248FDF720FD81B250488A
:1028900000F06EFD20780C30C0B22070982800D96E
:1028A0002570C820FEF762FB304609F083FE66E023
:1028B0000022891C00E0521C885C0028FBD10CA877
:1028C000521CFDF7F7FC48A1364800F09BFE354B43
:1028D000227849A13E4800F095FE3D48FDF7F6FC00
:1028E00081B23B4800F044FD20780C30C0B220702B
:1028F000982800D92570C820FEF738FB0CAA48A1FB
:10290000684600F07FFE6A4648A1264800F07AFE3D
:10291000244B227838A12E4800F074FE2C48FDF795
:10292000D5FC81B22A4800F023FD20780C30C0B2DB
:102930002070982800D92570C820FEF717FB3CA10D
:10294000184800F05FFE174B22782BA1204800F0BA
:1029500059FE1F48FDF7BAFC81B21D4800F008FD82
:1029600020780C30C0B22070982800D92570C8207B
:10297000FEF7FCFA4A4641463046FFF78DFE3846E0
:1029800006F090F86EE7000030000020B4C70008A1
:1029900043616E206E6F7420637265617465207090
:1029A000636220005433002053585928302C3029BA
:1029B0003B5342432830293B4453313228312C25A4
:1029C000642C272573272C3137293B0D0A00000082
:1029D000543700204261642054465450206F706385
:1029E0006F64652000000000494150207573696ED6
:1029F000672054465450200053585928302C302911
:102A00003B5342432830293B4453313228312C2553
:102A1000642C272573272C3135293B0D0A00000033
:102A200046696C653A20257300000000257300009C
:102A300053746174653A2045726173696E672E2E16
:102A40002E0000002DE9F0410F46002480460421AD
:102A500064F30704164661F30F2498B204F04AFEAB
:102A600060F31F4403220421002005F0A7FB0500AA
:102A70000ED06868B3B23A4604602946404609F071
:102A8000B1FD0446284606F00DF82046BDE8F08169
:102A90000FA1154800F0B6FD144C134B14A1227879
:102AA0001D4800F0AFFD1C48FDF710FC81B21A482C
:102AB00000F05EFC20780C30C0B22070982801D95C
:102AC0000C202070C820FEF751FA4FF0FF30DDE7F0
:102AD00043616E206E6F7420616C6C6F636174650E
:102AE0002070627566000000543300203000002022
:102AF00053585928302C30293B5342432830293B26
:102B00004453313228312C25642C272573272C314E
:102B100037293B0D0A0000005437002070B509F03A
:102B200039FD174E174C0C25B06020B145221649CF
:102B300009F0BAFBE0B115A1194800F063FD184B8C
:102B4000227818A1214800F05DFD2048FDF7BEFB6A
:102B500081B21E4800F00CFC20780C30C0B220700E
:102B6000982800D92570BDE87040C820FEF7FEB94E
:102B7000B068BDE870400022154909F018BD00009A
:102B80004800002030000020B4C7000843616E20D8
:102B90006E6F7420637265617465207063622000DB
:102BA0005433002053585928302C30293B5342438A
:102BB0002830293B4453313228312C25642C2725D9
:102BC00073272C3137293B0D0A00000054370020B1
:102BD000092800082DE9F04FADF50B7D8A46054622
:102BE000508911890C267A4CDDF850B29946174667
:102BF000884203D077A15DE0267071E0DFF8E881BC
:102C0000042832D97868FFF743FDD5F81412491C1F
:102C100088422AD178890423001F82B26946384647
:102C200005F0ACFE7989D8F80020121F0A44C8F8D4
:102C30000020081FC21700EB9270C0F38F028807B4
:102C400001D0521C92B268486946001DFDF7C8FECB
:102C5000D5F81402401CC5F814027989D5F8180279
:102C60000844001FC5F818020AE07868FFF710FD55
:102C70000146D5F81402401C814201D1C5F8140266
:102C80005A4649465046D5F81432FFF7DBFE78899C
:102C9000B0F5017F7ED229465046FFF7E1FC384669
:102CA00005F000FF0022134650490220FEF7F2FD16
:102CB000E8B14FA1554800F0A5FC544B227854A12F
:102CC0005D4800F09FFC5C48FDF700FB81B25A486C
:102CD00000F04EFB20780C30C0B2207098288BD8C2
:102CE000C820FEF743F90DF50B7DBDE8F08FD8F84D
:102CF000002052A180A800F085FC80AA52A1434880
:102D000000F080FC414B227855A14B4800F07AFC42
:102D10004948FDF7DBFA81B2474800F029FB2078EB
:102D20000C30C0B22070982800D92670C820FEF759
:102D30001DF955A1354800F065FC344B227848A1B7
:102D40003D4800F05FFC3C48FDF7C0FA81B23A48CC
:102D500000F00EFB20780C30C0B22070982800D90B
:102D60002670C820FEF702F94DA1284800F04AFC61
:102D7000264B22783AA1304800F044FC2E48FDF75B
:102D8000A5FA81B22C4800F0F3FA20780C30C0B2DA
:102D9000207000E018E0982800D92670C820FEF7BF
:102DA000E5F840F6B830FEF7E1F8012080F313882B
:102DB000BFF34F8F43480168434A01F4E061114378
:102DC0000160BFF34F8FFEE7384605F06BFE8AE7E0
:102DD00030000020496E76616C6964206461746122
:102DE000206C656E677468004800002000C0010810
:102DF0004572726F723A206661696C20746F207040
:102E0000726F6720666C61672000000054330020F9
:102E100053585928302C30293B5342432830293B02
:102E20004453313228312C25642C272573272C312B
:102E300037293B0D0A00000054370020256420622A
:102E40007974657320000000546F74206279746592
:102E5000732052656365697665643A2025730000C6
:102E600053585928302C30293B5342432830293BB2
:102E70004453313228312C25642C272573272C31DB
:102E800035293B0D0A00000053746174653A2050E7
:102E9000726F672046696E69736865642000000080
:102EA00054686520626F6172642077696C6C20726F
:102EB0006573657420696E2061206665772073658F
:102EC000630000000CED00E00400FA050D4808B5B1
:102ED000016841F4001101600068012200F4001053
:102EE000009011460B20FEF783FE0B20FEF775FEC7
:102EF000012211462F20FEF77BFEBDE808402F205F
:102F0000FEF76BBE303802402DE9F04387B0142144
:102F10006846FDF7C4F922480024016841F0040125
:102F20000160016801F004010591016841F0400170
:102F300001600068DFF86C9000F040004FF46067BB
:102F40000590012239464846FEF7FDFD4FF400701A
:102F500000900225CDE901540326DFF84C80CDE92D
:102F6000036469464046FEF7FFFC00970127694667
:102F700048460197CDE90245FEF7F6FC4020CDE931
:102F80000007CDE9024669464046FEF7EDFC012206
:102F900040214046FEF7D7FD07B0BDE8F0830000B2
:102FA00030380240001802400008024010B5114CB1
:102FB0000F480C2120604FF4E13060600020A060D9
:102FC000E060C4E90401A061E0612046FFF700FA77
:102FD00008B1FDF793FC2068C16841F01001C160A1
:102FE000BDE810404FF4806203490248FFF7A6BADB
:102FF00000500040543B002054330020FEE770474F
:103000000907090E002806DA00F00F0000F1E020A1
:1030100080F8141D704700F1E02080F8001470471C
:1030200000B587B0002003900490114A1149059023
:103030008DE8070005AB04AA03A90F4804F09EFF22
:103040000D4805F043F80C4890F8330040070A4853
:1030500002D505F0A5F801E005F03EF8064802F0BB
:1030600035F80649044805F069F807B000BD0000CE
:10307000FD5E00089D60000834020020A562000883
:1030800010B5FEF76BFDBDE81040FFF7E5B8000096
:1030900030B593B030216846FDF701F914210CA832
:1030A000FDF7FDF81D480025016841F080510160E1
:1030B000006800F0805011901948016841F44041C7
:1030C00001600068022400F440401190012000904B
:1030D000000401908001CDE906400C20089090206A
:1030E000CDE9090404200B906846FEF7EBFE0CA91D
:1030F0000F2081E831004FF4A0500F90E0021090B3
:1031000004210CA8FEF7A6FD4FF0A0624FF040414D
:103110000120FEF791FE13B030BD000040380240A0
:10312000007000401048016841F4700101600F48D0
:10313000016841F0010101600C4A00210832116070
:1031400002680B4B1A400260031D0A4A1A600268AB
:1031500022F48022026005480C30016002495806C2
:10316000803908607047000088ED00E000380240B8
:10317000FFFFF6FE1030002470B511480068C568E6
:10318000046840680E48FFF799F8E00616D5E8068F
:1031900014D50C49012008700B48006840680B49A1
:1031A000C0F5806008800648FFF75AF8BDE8704017
:1031B0004FF4806206490248FFF7C0B970BD0000B5
:1031C000543B002054000020943B00205600002077
:1031D0005433002010B5806B0021C185C184FFF7F6
:1031E0006BF810BD70B5846B2068406994F8391095
:1031F000C0F3C0100025212904D118B1E584204670
:1032000000F062F82068406994F83A10C0F380102A
:10321000222904D118B1E585204600F047F8E06B7B
:1032200040F01000E0632046FFF746F870BD10B58F
:103230000146806B09680968C90513D40021C1855E
:103240000168CA6822F48072CA6001684A6922F083
:1032500001024A6101684A6922F040024A61202164
:1032600080F83A10FFF7B6F910BD10B5806BFFF784
:10327000B2F910BD10B50146806B09680968C9052F
:103280000CD40021C18401684A6922F080024A619D
:103290000068C16841F04001C16010BDFFF7DCF972
:1032A00010BD10B5806BFFF7D8F910BD0168CA6872
:1032B00022F49072CA6001684A6922F001024A61F0
:1032C000202180F83A1070470168CA6822F0C002D5
:1032D000CA60202180F83910704710B590F83A1074
:1032E000222901D0022010BD8168B1F5805F11D084
:1032F0000169002901681FD0496801F07F03816AD4
:103300004A1C82620B70C18D491E0904090CC185DB
:1033100018D02BE00269816A002A0268526805D041
:10332000D2B20A80816A491C8162ECE7C2F30802CA
:103330000A80816A891CF7E74A68816A4B1C8362AC
:103340000A70E0E70168CA6822F02002CA600168DA
:10335000CA6822F48072CA6001684A6922F00102D8
:103360004A61202180F83A10FFF734F9002010BD9F
:1033700010B50C46002811D0094909680A68D243E3
:103380005206FBD4014622460648FCF76FFF224650
:10339000BDE8104003490248FFF71EB910BD000008
:1033A000543B0020543700202DE9F04104460068CA
:1033B0000169E26821F44051114301612169A0686B
:1033C000E26908436169114308432168CA6849F208
:1033D0000C639A430243CA6020684169A26921F4E0
:1033E000407111434161E069192764253226B0F527
:1033F000004F354A354920684FF0000806D0884212
:1034000001D0904236D1FEF7D5FC35E0884201D09C
:10341000904202D1FEF7CEFC01E0FEF7BBFC6168F2
:103420004A18A0FB070148EB0803FCF7DBFE014646
:10343000B0FBF5F00201B1FBF5F06FF01803584353
:1034400001EB800006EBC000B0FBF5F000F0F800E7
:1034500002EB4002B1FBF5F0584301EB800006EBB4
:10346000C000B0FBF5F000F0070021681044886050
:10347000BDE8F081FEF78EFC61688B0F8A00A0FB2F
:103480000701FCF7AFFE0146B0FBF5F06FF0180244
:10349000504301EB800006EB0010B0FBF5F000F0AC
:1034A000F002B1FBF5F002EB0012B1FBF5F06FF0AA
:1034B0001803584301EB800006EB0010B0FBF5F059
:1034C00000F00F00D1E7000000140140001001409F
:1034D00090F83910212901D0022070478168B1F598
:1034E000805F016A0BD04A1C026202680978516051
:1034F000C18C491E0904090CC1840ED017E009884B
:103500000268C1F30801516001690029016A02D013
:10351000491C0162ECE7891CFBE70168CA6822F0DC
:103520008002CA600068C16841F04001C1600020AB
:103530007047FEE710B590F83300C107124802D07B
:103540000121017010BD0521017010A1184800F083
:1035500059F8184C164B18A12278214800F052F85F
:103560001F48FCF7B3FE81B21D48FFF701FF20782A
:103570000C30C0B22070982801D90C202070BDE812
:103580001040C820FDF7F2BC4000002054686520C0
:103590006E6574776F726B206361626C652069730E
:1035A000206E6F7420636F6E6E65637465640000D7
:1035B000543300203000002053585928302C302933
:1035C0003B5342432830293B4453313228312C2588
:1035D000642C272573272C3135293B0D0A00000068
:1035E000543700200FB4054B10B503A9044A0298C4
:1035F00000F02CF810BC5DF814FB000055630008C7
:10360000F00000200FB4084B10B504A902AA0398DB
:1036100000F01CF8044602A9002000F0F3F8204650
:1036200010BC5DF814FB00000538000802E008C873
:10363000121F08C1002AFAD170477047002001E02C
:1036400001C1121F002AFBD1704700002DE9FF4F76
:103650008BB09A460F460546002606E025280BD07B
:1036600052460D9990476D1C761C28780028F5D19C
:103670000FB03046BDE8F08F0024A046012260491B
:1036800000E0044315F8013F203B02FA03F0084232
:10369000F7D128782E2817D115F8010F44F004042B
:1036A0002A280ED06FF02F022878A0F130010929C6
:1036B0000AD808EB880102EB410100EB01086D1C00
:1036C000F2E757F8048B6D1C287869283ED006DC99
:1036D0000028CDD063280BD0642804D136E07328AD
:1036E00010D075284BD052460D999047761C85E036
:1036F00017F8040B8DF8000000208DF80100E94652
:10370000012003E057F8049B4FF0FF3061074FF0B2
:10371000000401D40AE0641C44450DDA8442FADB5B
:1037200019F804100029F6D106E0641C8442FCDB81
:1037300019F804100029F8D1264404E019F8010B07
:1037400052460D999047641EF8D257E001CF4FF0D2
:103750000A0B002802DA40422D2102E0210504D59F
:103760002B218DF82410012103E0E10705D0202151
:10377000F7E70DF1200908910CE00021F9E701CFEE
:103780004FF00A0BF9E75946FCF7B4FD01F130029E
:1037900009F8012D0028F6D1ADEB090000F1200B4E
:1037A000600701D44FF00108D84502DDA8EB0B00FB
:1037B00000E000208046002406E009A85246005D93
:1037C0000D999047641C761C08988442F5DB04E050
:1037D000302052460D999047761CB8F10001A8F1AF
:1037E0000108F5DC05E019F8010B52460D999047E8
:1037F000761CBBF10001ABF1010BF4DC6D1C34E76E
:10380000092801000A68531C0B6010707047000003
:1038100010B504464068804722462068BDE8104045
:10382000014905F09FBC00001138000858B1426AF8
:10383000002A0FD0537A082B0CD10968926A914262
:1038400008D100F045BB04A340F27B3212A116A0C0
:10385000FFF7C8BE704700002E2E5C4C6962726193
:10386000726965735C4D6964646C657761726573D8
:103870005C54686972645F50617274795C4C77491A
:10388000505C7372635C636F72655C697076345C04
:10389000646863702E6300006E6574696620213D64
:1038A000204E554C4C000000417373657274696F73
:1038B0006E2022257322206661696C656420617424
:1038C000206C696E6520256420696E2025730A00CE
:1038D0002DE9FC4105001AD06C6AECB10023238469
:1038E000616B4FF03C07B1F1FF3F4FF480364FF072
:1038F00001024FF6FF7019D01E31B1FBF7F1B14252
:1039000000D301460904090C61840ED00EE02DA3FA
:1039100040F2FE323BA103E02AA34FF4806240A1B3
:1039200045A0FFF75FFEBDE8FC816284A16BB1F1A9
:10393000FF3F0CD01E31B1FBF7F1B14200D301467D
:103940000904090C218300D12283218BA183E16B1F
:10395000B1F1FF3F0CD01E31B1FBF7F1B14200D302
:1039600001460904090C618300D16283618BE18304
:10397000228B618B8A4201D301B12383E17A09B1A1
:10398000E06A09E094F828107F2901D8FF2003E0BD
:10399000C02901D36FF07F400090206B019028B9BF
:1039A000A06A0099084040F0807001900A212046EA
:1039B00001F084FB01AB6A4604F12801284604F0BB
:1039C00061FBB0E72E2E5C4C6962726172696573AF
:1039D0005C4D6964646C6577617265735C54686999
:1039E00072645F50617274795C4C7749505C737299
:1039F000635C636F72655C697076345C6468637085
:103A00002E630000646863705F62696E643A206EC2
:103A10006574696620213D204E554C4C0000000025
:103A2000646863705F62696E643A206468637020E2
:103A3000213D204E554C4C00417373657274696F83
:103A40006E2022257322206661696C656420617492
:103A5000206C696E6520256420696E2025730A003C
:103A600070B5446A05460821204601F027FB002274
:103A700004F12801284602F019F8A07AFF2801D2A3
:103A8000401CA0724FF4FA7140F2E730B0FBF1F045
:103A9000E08270BD70B5294804684CE0606AA0B34C
:103AA000417A91B3418C69B1018C491C89B201847E
:103AB000428C914206D1204601F0D4F9204600F014
:103AC000E1FA37E0C18B19B14A1EC283012906D041
:103AD000818BD1B14A1E8283012917D02AE0656A01
:103AE0002046697A012905D00A2903D0052901D089
:103AF00004291FD101F012F8688C298C401A022881
:103B000018DB00EBD0704008E88313E0656A2046BC
:103B1000697A012903D00A2901D005290AD101F0C7
:103B2000F5F9688B298C401A022803DB00EBD07072
:103B30004008A8832468002CB0D170BD8C00002000
:103B40002DE9F04116460C4607002CD0002C35D04C
:103B5000E068002806D05EA340F21F726CA176A038
:103B6000FFF740FD2069002806D059A34FF4E46216
:103B70007BA171A0FFF736FD00224FF49A7529460C
:103B8000104604F01BFBE060002821D04089A842C9
:103B900006D24FA340F227727BA167A0FFF722FD58
:103BA000032E1BD117E04AA340F21D7286A162A02A
:103BB000FFF718FD6FF00F00BDE8F08144A340F25D
:103BC0001E7289A15CA0FFF70DFD6FF00500F3E701
:103BD0004FF0FF30F0E7607A032808D1A07A8A4DD1
:103BE00008B1686802E0FCF72FFB68602060E068BD
:103BF0000025416801202161087021694870216910
:103C000097F82C0088702069C570206803F070FD5B
:103C10002169082E48602069058120694581206955
:103C2000C5600AD0042E08D0072E06D0032E07D177
:103C3000607A052801D0042802D121697868C8601B
:103C40002069056120694561206985615FF0000098
:103C500097F82C10814205D9062803D2391891F81B
:103C60002D1000E0002100F11C022369401C80B2ED
:103C700099541028ECD3002000F12C012269401C3B
:103C800080B255544028F7D35FF0000000F16C017A
:103C90002269401C80B255548028F7D321695B48C3
:103CA000C1F8EC00A5820020226900F1F001505417
:103CB000401C80B24428F7D301223521204600F071
:103CC00025FB3146204600F077FB002074E700001A
:103CD0002E2E5C4C69627261726965735C4D696419
:103CE000646C6577617265735C54686972645F5077
:103CF000617274795C4C7749505C7372635C636F7A
:103D000072655C697076345C646863702E63000071
:103D1000646863705F6372656174655F6D73673A51
:103D200020646863702D3E705F6F7574203D3D2088
:103D30004E554C4C00000000417373657274696FFE
:103D40006E2022257322206661696C65642061748F
:103D5000206C696E6520256420696E2025730A0039
:103D6000646863705F6372656174655F6D73673A01
:103D700020646863702D3E6D73675F6F7574203DBE
:103D80003D204E554C4C0000646863705F63726563
:103D90006174655F6D73673A20636865636B207457
:103DA000686174206669727374207062756620633E
:103DB000616E20686F6C6420737472756374206424
:103DC0006863705F6D736700646863705F637265DA
:103DD0006174655F6D73673A206E65746966202152
:103DE0003D204E554C4C0000646863705F63726503
:103DF0006174655F6D73673A206468637020213D6C
:103E0000204E554C4C000000040000206382536398
:103E100010B50B4C2078002805D10AA3F32219A174
:103E200021A0FFF7DFFB2078401E10F0FF0020707C
:103E300004D1A06808F0BEFB0020A06010BD000007
:103E4000040000202E2E5C4C6962726172696573F9
:103E50005C4D6964646C6577617265735C54686914
:103E600072645F50617274795C4C7749505C737214
:103E7000635C636F72655C697076345C6468637000
:103E80002E630000646863705F7063625F726566D2
:103E9000636F756E7428293A20726566636F756E5C
:103EA00074206572726F7200417373657274696F0A
:103EB0006E2022257322206661696C65642061741E
:103EC000206C696E6520256420696E2025730A00C8
:103ED0007CB5446A06460C21204601F0EFF8042226
:103EE00021463046FFF72CFE050021D10422322165
:103EF000204600F00BFAA06A03F0FAFB01462046C8
:103F000000F0C2FA204600F095FBA08AF03081B2A2
:103F1000E06804F01FFF0D484323CDE900600D4821
:103F20000B4AE168806808F091FB204600F014F825
:103F3000A07AFF2801D2401CA07242F603104FF471
:103F4000FA71B0FBF1F0E08228467CBDB4C70008EE
:103F5000B8C700080400002010B5040003D0E068D2
:103F6000002809D00FE0BDE8104010A340F26D72A8
:103F70001EA126A0FFF736BB0CA340F26E722DA146
:103F800022A0FFF72FFB2069002806D107A340F2EB
:103F90006F7232A11DA0FFF725FBE06808B104F0A5
:103FA00081FD0020E060206110BD00002E2E5C4CE1
:103FB00069627261726965735C4D6964646C65778E
:103FC000617265735C54686972645F506172747980
:103FD0005C4C7749505C7372635C636F72655C69BB
:103FE0007076345C646863702E630000646863708C
:103FF0005F64656C6574655F6D73673A20646863C0
:104000007020213D204E554C4C00000041737365DB
:104010007274696F6E2022257322206661696C6557
:1040200064206174206C696E6520256420696E20AF
:1040300025730A00646863705F64656C6574655F0E
:104040006D73673A20646863702D3E705F6F75749E
:1040500020213D204E554C4C0000000064686370E8
:104060005F64656C6574655F6D73673A206468634F
:10407000702D3E6D73675F6F757420213D204E5526
:104080004C4C00002DE9FC41446A06460020A06229
:104090000621204601F012F8012221463046FFF7A2
:1040A0004FFD070030D102223921204600F02EF9C1
:1040B000718D204600F06AFA03223721204600F075
:1040C00025F9DFF880800025204618F8051000F05B
:1040D00073F96D1CEDB2032DF6D3204600F0AAFA59
:1040E000A08AF03081B2E06804F034FE1648432321
:1040F000CDE900601348154A401EE168806808F069
:10410000A5FA2046FFF728FFA07AFF2801D2401C1D
:10411000A072C0B2062802D20121814000E03C21F9
:1041200001EB4100C0EBC1104FF6FF7101EAC00086
:104130004FF4FA7100F2F310B0FBF1F0E082384670
:10414000BDE8FC8105000020B4C70008B8C700081E
:1041500070B50B48002504680EE0606A58B1C18A4A
:10416000012903D9A1F10101C18204E003D1C58273
:10417000204601F0E3F82468002CEED170BD000069
:104180008C00002070B5446A0020154EE062206368
:10419000F178144D09B1E9686163317909B1296990
:1041A00001E0616B4908A163717909B1696903E0B4
:1041B000616BC1EBC101C908E16361680969A16272
:1041C000B17921B1A86903F093FAE0620120E072AD
:1041D000F079002803D0E86903F08AFA206370BD03
:1041E00010000020F400002010B5154C20780028A5
:1041F0001ED1A068002805D012A3D92221A12BA08E
:10420000FFF7F0F908F0C6F9A060B0B1017A4422D6
:1042100041F0200101722F4908F046F843222D4950
:10422000A06808F097F800222B49A06808F0BFF9B1
:104230002078401C2070002010BD4FF0FF3010BDD2
:10424000040000202E2E5C4C6962726172696573F5
:104250005C4D6964646C6577617265735C54686910
:1042600072645F50617274795C4C7749505C737210
:10427000635C636F72655C697076345C64686370FC
:104280002E630000646863705F696E635F706362D1
:104290005F726566636F756E7428293A206D656D6F
:1042A0006F7279206C65616B00000000417373656B
:1042B0007274696F6E2022257322206661696C65B5
:1042C00064206174206C696E6520256420696E200D
:1042D00025730A00B4C70008A94C0008416A0029E8
:1042E00013D04B7A0022042B0CD004DC002B0CD012
:1042F000032B04D106E0052B04D00A2B02D08A72CE
:10430000FFF7C0BE8A7200F065BC704770B50E46FC
:104310000446818A901C08441546442806D90BA3FC
:104320004FF4AE6219491AA0FFF75CF9A08A21691F
:104330000144401CA08281F8F060A08A21690144F8
:10434000401CA08281F8F05070BD00002E2E5C4C05
:1043500069627261726965735C4D6964646C6577EA
:10436000617265735C54686972645F5061727479DC
:104370005C4C7749505C7372635C636F72655C6917
:104380007076345C646863702E63000020C9000896
:10439000417373657274696F6E20222573222066E3
:1043A00061696C6564206174206C696E65202564A8
:1043B00020696E2025730A0070B50446808A0D4678
:1043C000442806D307A340F27B5216A124A0FFF78E
:1043D00009F9A08A21690144401CA08281F8F050AB
:1043E00070BD00002E2E5C4C69627261726965734B
:1043F0005C4D6964646C6577617265735C5468696F
:1044000072645F50617274795C4C7749505C73726E
:10441000635C636F72655C697076345C646863705A
:104420002E630000646863705F6F7074696F6E5F05
:10443000627974653A20646863702D3E6F707469A8
:104440006F6E735F6F75745F6C656E203C204448BF
:1044500043505F4F5054494F4E535F4C454E000000
:10446000417373657274696F6E2022257322206612
:1044700061696C6564206174206C696E65202564D7
:1044800020696E2025730A0070B50446808A0D46A7
:10449000001D442806D913A340F28A5221A131A05D
:1044A000FFF7A0F8A08A2269290E0244401CA082CE
:1044B00082F8F010A08A2269290C0244401CA082D4
:1044C00082F8F010A08A2269290A0244401CA082C6
:1044D00082F8F010A08A21690144401CA08281F872
:1044E000F05070BD2E2E5C4C69627261726965730A
:1044F0005C4D6964646C6577617265735C5468696E
:1045000072645F50617274795C4C7749505C73726D
:10451000635C636F72655C697076345C6468637059
:104520002E630000646863705F6F7074696F6E5F04
:104530006C6F6E673A20646863702D3E6F707469AB
:104540006F6E735F6F75745F6C656E202B20342007
:104550003C3D20444843505F4F5054494F4E535FB9
:104560004C454E00417373657274696F6E2022254D
:104570007322206661696C6564206174206C696EC9
:104580006520256420696E2025730A0070B50446F5
:10459000808A0D46801C442806D90BA340F2825223
:1045A00019491AA0FFF71EF8A08A2269290A0244B5
:1045B000401CA08282F8F010A08A21690144401CAE
:1045C000A08281F8F05070BD2E2E5C4C6962726141
:1045D000726965735C4D6964646C6577617265735B
:1045E0005C54686972645F50617274795C4C77499D
:1045F000505C7372635C636F72655C697076345C87
:10460000646863702E630000DCC800084173736542
:104610007274696F6E2022257322206661696C6551
:1046200064206174206C696E6520256420696E20A9
:1046300025730A0010B5040003D02069002809D0B2
:104640000FE0BDE8104016A340F2827224A12DA015
:10465000FEF7C8BF12A340F2837234A129A0FEF76F
:10466000C1FFA08A442806D30DA340F284723AA168
:1046700024A0FEF7B7FFA08A2269FF210244401C54
:10468000A08282F8F010002105E022690244401C5B
:10469000A08282F8F010A08A4428F6D310BD000052
:1046A0002E2E5C4C69627261726965735C4D69643F
:1046B000646C6577617265735C54686972645F509D
:1046C000617274795C4C7749505C7372635C636FA0
:1046D00072655C697076345C646863702E63000098
:1046E000646863705F6F7074696F6E5F7472616924
:1046F0006C65723A206468637020213D204E554CF1
:104700004C000000417373657274696F6E2022253E
:104710007322206661696C6564206174206C696E27
:104720006520256420696E2025730A006468637023
:104730005F6F7074696F6E5F747261696C65723AF5
:1047400020646863702D3E6D73675F6F7574202100
:104750003D204E554C4C0A00646863705F6F707466
:10476000696F6E5F747261696C65723A2064686328
:10477000702D3E6F7074696F6E735F6F75745F6CD0
:10478000656E203C20444843505F4F5054494F4E83
:10479000535F4C454E0A00002DE9F04F85B08A4624
:1047A0009C4A00210491D1601161BAF80A102C29A9
:1047B00019D3DAF804104160BAF808004FF0F00994
:1047C00002F10C08574606E0A9EB0102401A3F68C7
:1047D0001FFA82F980B237B179894A464945F3D93F
:1047E00015468346E3E06FF0010005B0BDE8F08FA9
:1047F000A81C80B200907A89681C4FF0FF36824274
:1048000003D903982844407803E0386808B1406829
:1048100000783429044647D008DC002924D0012937
:1048200027D003292DD0332908D134E035294BD0A6
:10483000362952D03A2958D03B295ED0002428444A
:10484000801C85B2002C0ED000200290082E06D3CA
:1048500071A340F2366280A184A0FEF7C3FE18F86F
:104860000600002851D092E000206D1E0446ADB233
:10487000E5E7042803D068A340F2F65210E00626CC
:10488000DDE70424042804D263A340F2FB5281A193
:1048900094E00726D3E7042804D05FA340F209621E
:1048A00081A18BE00326CAE7012803D05AA340F276
:1048B00017620EE0B9F1F00F04D057A340F219626D
:1048C0007CA17BE00026BAE7012804D052A340F285
:1048D0001D627EA172E00126B1E7042803D04EA339
:1048E00040F22162DCE70226A9E7042803D04AA3AC
:1048F00040F22562D4E70426A1E7042803D046A3AA
:1049000040F22962CCE7052699E7042C01D2204623
:1049100000E004200190024602A93846009B04F002
:104920002DF80146019881427FF45DAF042C17D920
:10493000A00704D038A340F23E6267A13EE0012008
:1049400008F80600029802F0D3FE6949241FE4B279
:1049500041F826000098001D80B2761C009075E793
:10496000042C06D0012C08D02BA34FF4C96261A1FE
:1049700024E0029802F0BCFE01E09DF808000290DD
:10498000012008F806005A48029940F82610788954
:10499000A84219D8291AABEB00008DB21FFA80FB90
:1049A0005D4519D2BBF1000F16D03F6817B178688A
:1049B00003900AE018A340F2546253A12BA0FEF723
:1049C00011FE6FF0050010E737B15D4504D2039882
:1049D000415DFF297FF40CAF98F8000050B14448C6
:1049E0000022006888F8002001280ED0022804D098
:1049F000032808D004980028E5D0002004904FF048
:104A00002C096C20DEE6012004904FF06C09EC20AC
:104A1000D8E60000040000202E2E5C4C6962726112
:104A2000726965735C4D6964646C65776172657306
:104A30005C54686972645F50617274795C4C774948
:104A4000505C7372635C636F72655C697076345C32
:104A5000646863702E630000636865636B2064653F
:104A6000636F64655F69647800000000417373657B
:104A70007274696F6E2022257322206661696C65ED
:104A800064206174206C696E6520256420696E2045
:104A900025730A006C656E203E3D206465636F647B
:104AA000655F6C656E0000006C656E203D3D2034D6
:104AB000000000006F7665726C6F616420696E2083
:104AC00066696C652F736E616D6500006C656E20A4
:104AD0003D3D2031000000006465636F64655F6CDC
:104AE000656E2025252034203D3D2030000000004B
:104AF000F4000020696E76616C6964206465636F00
:104B000064655F6C656E00006E6578742070627518
:104B10006620776173206E756C6C00002DE9F84398
:104B2000446A06460421204600F0C8FA03222146C2
:104B30003046FFF705F807002ED102223921204622
:104B4000FFF7E4FB718D2046FFF720FD032237219C
:104B50002046FFF7DBFBDFF874800025204618F8BD
:104B60000510FFF729FC6D1CEDB2032DF6D320468E
:104B7000FFF760FDA08AF03081B2E06804F0EAF847
:104B800012480096401E4323114AE168806807F0EE
:104B900042FD2046FFF7E0F9A07AFF2801D2401C31
:104BA000A072C0B20A2804D24FF47A7110FB01F04F
:104BB00001E042F2107080B24FF4FA7100F2F3108B
:104BC000B0FBF1F0E0823846BDE8F8830500002034
:104BD000B8C700082DE9F843446A07460321204678
:104BE00000F06CFA032221463846FEF7A9FF0600C2
:104BF0003CD1022239212046FFF788FB4FF4107187
:104C00002046FFF7C3FC042232212046FFF77EFB3B
:104C1000A06A02F06DFD01462046FFF735FC032235
:104C200037212046FFF772FBDFF87480002500BFB4
:104C300018F805102046FFF7BFFB6D1CEDB2032DE1
:104C4000F6D32046FFF7F6FCA08AF03081B2E06888
:104C500004F080F812480097401E4323114AE1688F
:104C6000806807F0D8FC2046FFF776F9A07AFF2885
:104C700001D2401CA072C0B20A2804D24FF47A714B
:104C800010FB01F001E042F2107080B24FF4FA71B3
:104C900000F2F310B0FBF1F0E0823046BDE8F8839B
:104CA00005000020B8C700082DE9F0414A485768C0
:104CB000164645686C6A002C71D0207A4FF00008C7
:104CC00000286DD06068002806D044A34FF4D56258
:104CD00052A157A0FEF786FC70892C2875D338782E
:104CE000022872D1002095F82C1001E0401CC0B2BF
:104CF000814209D9062807D22A183B1892F82D209C
:104D00001B7F9A4260D1F1E7786802F0F1FC2168DC
:104D1000884259D131462046FFF73EFDF8B94E4949
:104D20004878E0B14D4A1079052804D006281FD0F4
:104D3000022836D048E0607A012806D0032813D034
:104D4000042811D005280FD03EE02846FFF71AFAB4
:104D500095F83300000703D52846FEF781FE33E0BF
:104D60002846FEF7B5FD2FE02846FFF70BFAF7E7D8
:104D7000607A032805D0012803D0042801D0052833
:104D800022D10C21686A00F099F9354B28461A4661
:104D9000114603F077F92846FFF774F914E016E09E
:104DA00013E0607A06280FD1A4F816802F466D6AAA
:104DB000887848B1906802F09BFC68626868006976
:104DC000A862384600F0FEF80CB1C4F80480304602
:104DD000BDE8F04103F066BE543C00202E2E5C4C32
:104DE00069627261726965735C4D6964646C657750
:104DF000617265735C54686972645F506172747942
:104E00005C4C7749505C7372635C636F72655C697C
:104E10007076345C646863702E6300007265706C39
:104E200079207761736E277420667265656400006F
:104E3000417373657274696F6E2022257322206638
:104E400061696C6564206174206C696E65202564FD
:104E500020696E2025730A0010000020F400002055
:104E6000B4C700087CB5446A0546F4B1606A019095
:104E7000284600F055FA06460021204600F01EF9AB
:104E800000206062A062E0622063E063A063606370
:104E900060842084E083A08356B1072221462846FF
:104EA000FEF74EFE060005D024E06FF00F007CBD3B
:104EB00000207CBD042236212046FFF727FA019806
:104EC00002F016FC01462046FFF7DEFA2046FFF707
:104ED000B1FBA08AF03081B2E06803F03BFF0948E3
:104EE0000095432301AAE168806807F094FB2046FF
:104EF000FFF732F8044B28461A46114603F0C2F871
:104F000030467CBD04000020B4C700082DE9F843FA
:104F1000446A06460521204600F0D0F803222146C7
:104F20003046FEF70DFE07002FD102223921204620
:104F3000FFF7ECF9718D2046FFF728FB032237219C
:104F40002046FFF7E3F9DFF878800025204618F8BF
:104F50000510FFF731FA6D1CEDB2032DF6D3204694
:104F6000FFF768FBA08AF03081B2E06803F0F2FE40
:104F700013480096401E432304F12402E168806830
:104F800007F049FB2046FEF7E7FFA07AFF2801D291
:104F9000401CA072C0B20A2804D24FF4FA6110FB80
:104FA00001F001E044F6206080B24FF4FA7100F2A3
:104FB000F310B0FBF1F0E0823846BDE8F883000062
:104FC000050000202DE9FC41446A064601212046E7
:104FD00000F074F8032221463046FEF7B1FD0700C9
:104FE00048D1022239212046FFF790F9718D2046E1
:104FF000FFF7CCFA042232212046FFF787F9A06A96
:1050000002F076FB01462046FFF73EFA04223621E5
:105010002046FFF77BF9606A02F06AFB01462046F2
:10502000FFF732FA032237212046FFF76FF9DFF846
:1050300080800025204618F80510FFF7BDF96D1C8B
:10504000EDB2032DF6D32046FFF7F4FAA08AF03034
:1050500081B2E06803F07EFE16484323CDE900608C
:105060001348154A401EE168806807F0EFFA2046B1
:10507000FEF772FFA07AFF2801D2401CA072C0B2D6
:10508000062802D20121814000E03C2101EB4100D1
:10509000C0EBC1104FF6FF7101EAC0004FF4FA7186
:1050A00000F2F310B0FBF1F0E0823846BDE8FC817D
:1050B00005000020B4C70008B8C70008427A8A4239
:1050C00003D0417200218172C182704770B5050022
:1050D0006FF00F042ED095F83300C0072FD0688DE5
:1050E0006C6A4FF0FF36B0F5107F21D3002C2FD023
:1050F000E068002806D01FA34FF43C722DA133A016
:10510000FEF770FA6068002806D01AA340F2F12278
:1051100038A12EA0FEF766FA207A08B1FEF778FED5
:1051200040212046FBF7BBF8FFF75EF8002816D0B9
:10513000304670BD0FA340F2D62233A103E00DA389
:1051400040F2D72234A121A0FEF74CFA204670BDD0
:10515000402002F075FC0400EAD06C62E0E7012018
:1051600020722846FEF78EFF0028F0D0284600F077
:1051700065F8DDE72E2E5C4C6962726172696573B9
:105180005C4D6964646C6577617265735C546869D1
:1051900072645F50617274795C4C7749505C7372D1
:1051A000635C636F72655C697076345C64686370BD
:1051B0002E6300007062756620705F6F75742077D3
:1051C00061736E2774206672656564004173736550
:1051D0007274696F6E2022257322206661696C6586
:1051E00064206174206C696E6520256420696E20DE
:1051F00025730A007265706C79207761736E27746D
:1052000020667265656400006E6574696620213DE4
:10521000204E554C4C0000006E6574696620697321
:10522000206E6F742075702C206F6C6420737479FD
:105230006C6520706F72743F0000000010B500288C
:1052400018D0446A002C14D06068002806D00EA341
:1052500040F24F521CA121A0FEF7C4F900212046C4
:10526000FFF72CFF207A002803D0FEF7D1FD0020A5
:10527000207210BDBDE8104003A340F2425221A1AC
:1052800016A0FEF7AFB900002E2E5C4C6962726169
:10529000726965735C4D6964646C6577617265738E
:1052A0005C54686972645F50617274795C4C7749D0
:1052B000505C7372635C636F72655C697076345CBA
:1052C000646863702E6300007265706C792077618A
:1052D000736E2774206672656564000041737365A0
:1052E0007274696F6E2022257322206661696C6575
:1052F00064206174206C696E6520256420696E20CD
:1053000025730A00646863705F73746F703A206E6F
:105310006574696620213D204E554C4C000000000C
:1053200040B1406A30B1407A0A2805D0052803D040
:10533000042801D0002070470120704710B5426A50
:105340000446517A0C290FD006290DD001290FD01F
:10535000082919D0032923D1907A022812D2204695
:10536000BDE81040FFF736BCBDE81040FEF78ABE2E
:10537000907A0528204603D8BDE81040FFF722BEEA
:10538000FFF770FD2046EFE7907A0128204603D80A
:10539000BDE81040FEF764BBBDE81040FEF798BAC8
:1053A00010BD000070B505460C46880706D006A360
:1053B0004FF4CE7213A11BA0FEF714F9A868006881
:1053C0002060A868046070BD2E2E5C4C696272611A
:1053D000726965735C4D6964646C6577617265734D
:1053E0005C54686972645F50617274795C4C77498F
:1053F000505C7372635C636F72655C6D656D702E7B
:10540000630000006D656D705F667265653A206DC2
:10541000656D2070726F7065726C7920616C696760
:105420006E656400417373657274696F6E20222526
:105430007322206661696C6564206174206C696EFA
:105440006520256420696E2025730A0010B58068E8
:105450000468002C0CD021680160A00706D005A3C9
:105460004FF4A47212A11BA0FEF7BCF8204610BD99
:10547000002010BD2E2E5C4C6962726172696573EA
:105480005C4D6964646C6577617265735C546869CE
:1054900072645F50617274795C4C7749505C7372CE
:1054A000635C636F72655C6D656D702E63000000F8
:1054B0006D656D705F6D616C6C6F633A206D656DCD
:1054C000702070726F7065726C7920616C69676EA4
:1054D00065640000417373657274696F6E202225E4
:1054E0007322206661696C6564206174206C696E4A
:1054F0006520256420696E2025730A0070B50A4D69
:105500000646002404EB440005EBC000017D29B1F0
:105510008068B04202D1204600F01AF9641CE4B25F
:105520000A2CEFD370BD0000140100202DE9F74FC5
:1055300084B04FF00A0B00240646DA465F46D9468F
:1055400002940194CDF800404F4904EB440001EB74
:10555000C008039098F814500A2F16D0002D24D0BC
:10556000012D08D0022D06D2484B40F2251248A149
:1055700057A0FEF737F866B13168D8F804008142C9
:1055800007D160B207B0BDE8F08F002DE8D167B257
:105590000BE0012D17D0022D07D3B8F812000099A7
:1055A000884202D34FFA84FA0090641CE4B20A2CB9
:1055B000CAD3059881074FF0FF30E3D40A2F18D0E3
:1055C0001ADAFCB242E03048039950F83100002862
:1055D000B8F8120006D002998842E6D34FFA84F94F
:1055E0000290E2E701998842DFD34FFA84FB0190F1
:1055F000DBE70599C907C5D0BAF10A0F0FDA0AF03F
:10560000FF04214804EB440150F8310090B11F4BD6
:1056100040F26F1238A12EA0FDF7E4FF0AE0BBF1C3
:105620000A0F02DA0BF0FF0404E0B9F10A0FA9DA5D
:1056300009F0FF040A2C06D3144B40F2811234A166
:1056400023A0FDF7CFFF204600F082F80A2C06D3F6
:105650000E4B40F285122EA11DA0FDF7C3FF0A4894
:1056600004EB440100EBC105287D30B1074B4FF43A
:10567000C3722CA116A0FDF7B5FF0EB130686860AB
:10568000002068827DE7000014010020ACC90008FA
:105690007374617465203D3D204554484152505F0C
:1056A00053544154455F50454E44494E47207C7CFD
:1056B000207374617465203E3D204554484152502A
:1056C0005F53544154455F535441424C45000000E0
:1056D000417373657274696F6E2022257322206690
:1056E00061696C6564206174206C696E6520256455
:1056F00020696E2025730A006172705F7461626CAC
:10570000655B695D2E71203D3D204E554C4C00007F
:1057100069203C204152505F5441424C455F5349FF
:105720005A4500006172705F7461626C655B695D0F
:105730002E7374617465203D3D204554484152509C
:105740005F53544154455F454D505459000000008B
:1057500070B5074C00EB4005002654F8350018B131
:1057600003F0A0F944F8356004EBC500067570BD80
:10577000140100202DE9F04385B00D00074609D043
:105780007C684FF480782088404542D120790628F3
:105790003FD109E0214B4FF4227221A124A0FDF753
:1057A00021FF05B0BDE8F0836079042831D160881D
:1057B00008282ED1D4F80E000490A169686820B1A1
:1057C000814202D10126334601E00026022304F182
:1057D0000802914604A9284600F01CFBE0884045D9
:1057E00003D0B0F5007F14D10FE096B1022204ABD4
:1057F000CDE90232291DCDE9001905F12D03194625
:105800004A46284600F022FA03E004A92846FEF79B
:105810000DF8384603F046F9C3E70000ACC90008AC
:105820006E6574696620213D204E554C4C00000089
:10583000417373657274696F6E202225732220662E
:1058400061696C6564206174206C696E65202564F3
:1058500020696E2025730A00FEB515460E46040029
:1058600006D1424B40F21B3241A145A0FDF7BAFEE2
:1058700036B93E4B4FF447724BA141A0FDF7B2FE43
:1058800035B93A4B40F21D324AA13DA0FDF7AAFEC0
:105890002146286800F010FF08B14A4B39E028681B
:1058A000C0F303110E291FD0A168636800EA01024A
:1058B0000B409A4208D080B2A0F57E41A93903D0AE
:1058C000E06880B304F10C053F4A4049137803EBCC
:1058D000430001EBC000077D022F28D32F684068EA
:1058E000874224D11A4631E001208DF804000020BF
:1058F0008DF805005E208DF80600687801AB00F099
:105900007F008DF80700A8788DF80800E8788DF8FA
:1059100009004FF40060009004F12D02314620464A
:1059200000F03CFBFEBDFFE76FF00300FAE700204C
:1059300000EB400301EBC3031F7D022F0BD32F6845
:105940005B689F4207D1C0B21070024631462046C4
:1059500000F03EF8E6E7401C40B20A28E8DB324699
:105960002946204600F0A2F8DCE70000ACC9000898
:105970006E6574696620213D204E554C4C00000038
:10598000417373657274696F6E20222573222066DD
:1059900061696C6564206174206C696E65202564A2
:1059A00020696E2025730A007120213D204E554C40
:1059B0004C00000069706164647220213D204E55E6
:1059C0004C4C0000C4C7000818000020140100203F
:1059D0002DE9F8430646154688461C4802EB45016A
:1059E00000EBC104207D022806D2194B4FF43B7214
:1059F00018A124A0FDF7F6FD144A05EB4501207D12
:105A000002EBC1050C35022813D1608A0327B0F5DB
:105A10008E7F04D9211D304600F0B6F907E0B0F5BD
:105A2000877F06D32A46211D304600F0B3F900B91E
:105A300027754FF4006000902B4606F12D02414679
:105A4000304600F0ABFABDE8F883000014010020F6
:105A5000ACC900086172705F7461626C655B6172F1
:105A6000705F6964785D2E7374617465203E3D20BB
:105A70004554484152505F53544154455F5354413B
:105A8000424C4500417373657274696F6E20222524
:105A90007322206661696C6564206174206C696E94
:105AA0006520256420696E2025730A002DE9FC5FBE
:105AB00082462D3001908846086814464FF0FF3624
:105AC0004FF0000B514600F0F7FD002826D1D8F822
:105AD0000000C0F303110E2920D0B8F1000F1DD033
